:020000040800F2
:10000000D8490020A10100087B080008A5020008CB
:100010007708000869070008DD0E000800000000EE
:10002000000000000000000000000000B301000814
:100030006D07000800000000F3010008450C0008EF
:10004000BB010008BB010008BB010008BB010008A0
:10005000BB010008BB010008BB010008BB01000890
:10006000BB010008BB010008BB010008BB01000880
:10007000BB010008BB010008BB010008BB01000870
:10008000BB010008BB010008BB010008BB01000860
:10009000BB010008BB010008BB010008BB01000850
:1000A000BB010008BB010008BB010008BB01000840
:1000B000BB010008BB010008BB010008BB01000830
:1000C000BB010008BB010008BB010008BB01000820
:1000D000BB0100086F0D0008BB010008BB01000850
:1000E000BB010008BB010008BB010008BB01000800
:1000F000BB010008BB010008BB010008BB010008F0
:10010000BB010008BB010008BB010008BB010008DF
:10011000BB010008BB010008BB010008BB010008CF
:10012000BB010008BB010008BB010008BB010008BF
:10013000BB010008BB010008BB010008BB010008AF
:10014000BB010008BB010008BB010008BB0100089F
:10015000BB010008BB010008BB010008BB0100088F
:10016000BB010008BB010008BB010008BB0100087F
:10017000BB010008BB010008BB010008BB0100086F
:10018000BB010008BB010008DFF810D000F0B4F894
:10019000004800471D030008AFF30080D849002045
:1001A0000648804706480047FEE7FEE7FEE7FEE711
:1001B000FEE7FEE7FEE7FEE7FEE7FEE7ED0C0008E0
:1001C00089010008EFF3108072B6704780F3108841
:1001D0007047424A1368012B04D04FF001031360AB
:1001E0003F4A10603F4A11603F484FF08051016024
:1001F0007047EFF3108272B63848016851B34FF080
:10020000000101603648016891B1EFF309811EF0E9
:10021000100F08BF21ED108B21E9F00F4FF0000403
:100220001EF0100F08BF012441F8044D0068016062
:100230002C490968096808C9B1E8F00F002B18BFFC
:10024000B1EC108B81F309884EF0100E002B18BF13
:100250002EF0100E82F310884EF0040E70472149E4
:100260000860EFF3148222F0040282F314881C4920
:100270004FF00000086019494FF0010008601B486A
:100280001B49D0F8002041EA0201016016484FF0F6
:100290008051016017480068006880F3088861B6E3
:1002A00062B670471EF0040F0CBFEFF30880EFF347
:1002B000098020E9F00F40F804ED40F804ED1EF04D
:1002C000040F0CBF80F3088880F3098800B501F0A3
:1002D00003FA5DF804EB4EF0040E7047CC000020EA
:1002E000C4000020C800002004ED00E020ED00E084
:1002F0000000FFFF08ED00E0064C074D06E0E06857
:1003000040F0010394E8070098471034AC42F6D35C
:10031000FFF73EFF3C3100085C31000810B502F0E9
:10032000DFFD002010BD0000002463E032480078AB
:1003300000F0010020B10821304800F08CFA08E0FC
:100340002D48007800F0010018B908212B4800F072
:1003500084FA2948007800F0020020B110212748D3
:1003600000F079FA08E02448007800F0020018B99B
:100370001021224800F071FA1F48007800F00400B4
:1003800028B14FF400711E4800F065FA09E01A48E0
:10039000007800F0040020B94FF40071184800F014
:1003A0005CFA1848007838B913480078012101EB4D
:1003B00040001149087004E00F48007840100E49D1
:1003C00008700D480078072802DA0B48007838B921
:1003D0000C48007808B9012000E0002009490870A5
:1003E0004FF4FA7002F01BF9601C0446014606A0A7
:1003F00001F016FB9AE700002D00002000100240DB
:10040000001802402C0000204C6564205461736B7E
:100410002052756E20436F756E74203D2025642038
:100420000D0A00007FB505460E4600230522142163
:1004300028A001F075FC294908600846006810B939
:1004400027A001F0EDFA4FF4807029490023294AD2
:1004500001AC61C4009128A12B4802F065F9044663
:100460001CB92AA001F0DCFA02E030A001F0D8FAB1
:10047000254802F0B9F904461CB933A001F0D0FABE
:1004800002E039A001F0CCFA4FF480703D4900231E
:100490003D4ACDE90256CDE900103CA13F4802F0AB
:1004A00043F904461CB93EA001F0BAFA02E043A0A9
:1004B00001F0B6FA394802F097F904461CB946A093
:1004C00001F0AEFA02E04CA001F0AAFA204604B016
:1004D00070BD0000746573745F6D710024000020AE
:1004E000B6D3C1D0B4B4BDA8CAA7B0DC0D0A000011
:1004F000D40000209D0600084D7153656E645F5462
:100500006872656164000000D40200204D7153657B
:100510006E645F5461736B20437265617465205330
:100520007563636573730D0A000000004D715365B8
:100530006E645F5461736B2043726561746520461D
:1005400061696C0D0A0000004D7153656E645F5463
:1005500061736B205374617274757020537563639B
:100560006573730D0A0000004D7153656E645F542E
:1005700061736B2053746172747570204661696C8D
:100580000D0A0000D40100201506000841707054C7
:100590006573745F4D715265630000004C03002069
:1005A0004D715265635F5461736B20437265617472
:1005B0006520537563636573730D0A004D71526551
:1005C000635F5461736B204372656174652046619B
:1005D000696C0D0A000000004D715265635F546143
:1005E000736B205374617274757020537563636507
:1005F00073730D0A000000004D715265635F546112
:10060000736B2053746172747570204661696C0D50
:100610000A0000001CB5002001901DE04FF0FF33E0
:10062000042201A90D48006801F0BEFB044664B92C
:100630009DF8070000909DF806309DF805209DF874
:10064000041007A001F0ECF902E00EA001F0E8F9B7
:100650004FF47A7001F0E3FFE0E70000240000208F
:10066000CFFBCFA2B6D3C1D0CAFDBEDDBDD3CAD5A4
:10067000B3C9B9A63A25642C2025642C2025642C06
:10068000202564004D71207265636569766520647C
:10069000617461204661696C650000001CB5002032
:1006A00001903BE04FF400711D4800F0CBF880B1A1
:1006B0004FF480711A4800F0C5F850B180211848F5
:1006C00000F0C0F828B14021154800F0BBF8002820
:1006D00020D114480068401C124908600846006890
:1006E00000BA0190042201A90F48006801F0EDFB57
:1006F000044664B99DF8070000909DF806309DF807
:1007000005209DF8041009A001F08AF902E010A06C
:1007100001F086F94FF47A7001F081FFC2E7000022
:10072000001402402800002024000020CFFBCFA2AC
:10073000B6D3C1D0CAFDBEDDB7A2CBCDB3C9B9A671
:100740003A25642C2025642C2025642C2025640067
:10075000CFFBCFA2B6D3C1D0CAFDBEDDB7A2CBCDF1
:10076000CAA7B0DC0000000000BFFEE77047F0B58C
:100770000A4600210023002400BF3DE0012505FAC0
:1007800001F3156805EA03049C4234D105684F0063
:100790000326BE40B543056015794E00B540066896
:1007A000354305601579012D02D01579022D16D13A
:1007B00085684F000326BE40B543856055794E00DD
:1007C000B540866835438560456801268E40B5434F
:1007D0004560456896798E40B6B235434560C56838
:1007E0004F000326BE40B543C560D5794E00B540E5
:1007F000C6683543C560491C1029BFD3F0BDF0B5AC
:10080000002300244D07ED0E02FA05F3CE1000F18F
:10081000200555F826504E07F70E0F26BE40B5436B
:10082000CF1000F1200646F82750CE1000F1200529
:1008300055F8265045EA0304CE1000F1200545F88E
:100840002640F0BD0246002013690B400BB1012089
:1008500000E000207047418370470183704710B566
:100860004FF4407000F046F800F03CFC00F0EEFB66
:1008700000F00CFC10BD00BFFEE7704770B5002112
:1008800000230F22C4781CB3174C246804F4E064DE
:10089000C4F5E064C4F30721C1F10404E3B20A41E2
:1008A00044789C40E1B28478144021430C07210E27
:1008B0000E4C05786155047804F01F050124AC4006
:1008C00005786D11AD0005F1E025C5F8004109E09E
:1008D000047804F01F050124AC40054D067876111C
:1008E00045F8264070BD00000CED00E000E400E09B
:1008F00080E100E002490143024A116070470000B4
:100900000000FA050CED00E029B1064A1268024326
:10091000044B1A6004E0034A12688243014B1A60D8
:10092000704700003038024029B1064A126802437D
:10093000044B1A6004E0034A12688243014B1A60B8
:100940007047000044380240F0B500210022002426
:10095000022500260223324F3F6807F00C0121B127
:10096000042905D0082937D105E02E4F076036E06D
:100970002D4F076033E02A4F3F1F3F68C7F3805673
:10098000274F3F1F3F6807F03F036EB1264FB7FB6D
:10099000F3F7DFF88CC0ACF1040CDCF800C0CCF34A
:1009A000881C07FB0CF40CE01E4FB7FBF3F7DFF8D5
:1009B00070C0ACF1040CDCF800C0CCF3881C07FB61
:1009C0000CF4174F3F1F3F68C7F301477F1C7D00A2
:1009D000B4FBF5F7076002E0124F076000BF00BFED
:1009E0000F4F3F6807F0F0010909104F7A5C076864
:1009F000D74047600A4F3F6807F4E051890A0B4F20
:100A00007A5C4768D7408760054F3F6807F46041CC
:100A1000490B064F7A5C4768D740C760F0BD0000BD
:100A2000083802400024F40000127A00140000206C
:100A300010B501460022002300204A11012A02D1EC
:100A40000A4C236808E0022A03D1084C703423685A
:100A500002E0064C7434236801F01F020124944024
:100A60001C400CB1012000E0002010BD0038024005
:100A70000248006800F00C0070470000083802408F
:100A800001460020034A106820F0F000084310607F
:100A900070470000083802400021024A11701146D8
:100AA000087070470238024001460020034A10686F
:100AB00020F4E050084310607047000008380240FE
:100AC00001460020034A106820F4604040EAC1005B
:100AD00010607047083802400149086670470000FE
:100AE0000000474270B5049C41EA82150126C6EB1E
:100AF000530645EA0645054345EA0465014E35605F
:100B000070BD00000438024001460020034A10680E
:100B100020F00300084310607047000008380240CE
:100B200038B5002000900024002500BF3120FFF7D9
:100B30007FFF05460098401C00900098B0F5A04F3C
:100B400001D0002DF2D03120FFF772FF08B101244F
:100B500000E00024204638BD0CB500200190009034
:100B60003448006840F480303249086000BF3148A2
:100B7000006800F4003000900198401C019000983B
:100B800018B90198B0F5A04FF1D12A48006800F4D7
:100B9000003010B10120009001E00020009000988A
:100BA000012846D123484030006840F08050214958
:100BB000403108602048006840F440401E49086009
:100BC0001C48083000681B49083108600846006866
:100BD00040F4004008600846006840F4A0500860F7
:100BE0001648091F0860081F006840F08070091F40
:100BF000086000BF0F48006800F000700028F9D0BE
:100C000040F205700E4908600A480830006820F07C
:100C100003000849083108600846006840F00200F7
:100C2000086000BF03480830006800F00C00082886
:100C3000F8D10CBD00380240007000400854400755
:100C4000003C024010B501F075FA10BD2DE9FC41E1
:100C500004460D4616461F46002001900120FFF76E
:100C60001BFFFFF75DFF01900198012834D11C485C
:100C7000006840F080501A4908601A48006840F443
:100C80004040184908600020FFF7FAFE4FF48050FA
:100C9000FFF716FF4FF4A050FFF706FF33462A4632
:100CA00021464FF480000097FFF71CFF0120FFF75B
:100CB00013FF00BF3920FFF7BBFE0028FAD040F237
:100CC0000570094908600220FFF71EFF00BFFFF70B
:100CD000CFFE0828FBD101E000BFFEE7BDE8FC81A4
:100CE0004038024000700040003C024010B51548FA
:100CF000006840F47000134908601348006840F031
:100D000001001149086000200F49083108600E48B1
:100D100000680E4908400C4908600D48091D08602C
:100D2000081F006820F48020091F08600020064981
:100D30000C310860FFF710FF4FF000600149803967
:100D4000086010BD88ED00E000380240FFFFF6FEAD
:100D50001030002410B54FF4FA71062002F0E8F8C4
:100D60004FF4FA710620FFF75DFB204610BD704777
:100D700001F40072B2F5007F00D100BFCA430280C7
:100D8000704721B1828942F40052828104E0828955
:100D90004DF6FF731A408281704702460020B1F57C
:100DA000007F00D100BF13880B400BB1012000E091
:100DB00000207047F0B503460024002600250020DF
:100DC00040F66A17B94200D100BF1846C1F3421479
:100DD00001F01F06012707FA06F5012C01D10C309E
:100DE00004E0022C01D1103000E014301AB1076881
:100DF0002F43076002E00768AF430760F0BD0000C3
:100E00002DE9FF4705460E460024A14600BFA04637
:100E1000B08900B100BF2C8A24F44054F088044308
:100E20002C82AC8941F20C608443B088318908433C
:100E3000718908430443AC81AC8A24F44074B089BE
:100E40000443AC826846FFF77FFD2048854202D00C
:100E50001F48854202D1DDF80C9001E0DDF80890D2
:100E6000A88900F4004040B109EBC90000EB09106B
:100E700031684900B0FBF1F707E009EBC90000EB6E
:100E8000091031688900B0FBF1F76420B7FBF0F07E
:100E900004012009642101FB1078A88900F40040B6
:100EA00040B1322000EBC800B0FBF1F000F00700C9
:100EB000044308E0322000EB08106421B0FBF1F09D
:100EC00000F00F0004432C81BDE8FF8700100140B3
:100ED00000140140C1F308028280704700BFFEE7A2
:100EE000014609B900207047C8B220B1C8B20E4A05
:100EF000105C401CF7E701F47F4028B10A48C1F3B9
:100F00000722805C0930EEE701F47F0028B1064833
:100F1000C1F30742805C1130E5E7034800EB116044
:100F200000781930DFE700000430000802E008C84C
:100F3000121F08C1002AFAD170477047002001E053
:100F400001C1121F002AFBD1704700002DE9FC5F90
:100F500004468B4615461E46DDE90C9ADDE90E78FF
:100F600004F114004060006000BF1C346560A6609E
:100F7000C4F80C90C4F810A02321D4E9030200F0B7
:100F8000ABFED4E9033C63441A1F0F4BD4E90101C3
:100F900000F0B4FC2060A77667760020E061C4F81A
:100FA0002080C4F82480606120766065A0651C3CC8
:100FB00000902346054A2146019004F1440001F0C7
:100FC00042FD0020BDE8FC9F2D260008592800089E
:100FD0002DE9F04704460E4617469846DDF8209066
:100FE00084F80990607A20F001006072E66127625F
:100FF0000020A062C4F82480002506E004F114015A
:1010000001EBC50000F02AFD6D1C012DF6DBBDE8EB
:10101000F08770B50546002406E005F1140101EBE8
:10102000C40000F05CFD641C012CF6DB70BD70B5E3
:101030000446FFF7C7F80546206F10B12046216F20
:1010400088472846FFF7C2F870BD00001CB5012193
:101050004020FFF759FC01208DF8040000208DF896
:10106000060003208DF8050001208DF80700802080
:10107000009069460448FFF77AFB00BF80210248D0
:10108000FFF7E9FB00BF1CBD001802401CB50121A1
:101090002020FFF739FC00208DF8040001208DF896
:1010A000070003208DF805004FF40070009069469A
:1010B0000B48FFF75CFB4FF48070009069460848CE
:1010C000FFF755FB8020009069460548FFF74FFB6E
:1010D0004020009069460248FFF749FB1CBD000014
:1010E000001402401CB501215020FFF70DFC012027
:1010F0008DF8040000208DF8060003208DF805000F
:1011000001208DF807000820009069460E48FFF77F
:101110002EFB1020009069460B48FFF728FB4FF488
:101120000070009069460948FFF721FB0821064836
:10113000FFF793FB10210448FFF78FFB4FF400717A
:101140000248FFF78AFB1CBD001002400018024055
:1011500010B588B0044601211020FFF7E5FB0121FE
:101160000846FFF7D1FB072209212748FFF747FB75
:1011700007220A212448FFF742FB02208DF81C00B9
:101180008DF81D0000208DF81E0001208DF81F0035
:101190004002069006A91C48FFF7E9FA4FF4806068
:1011A000069006A91848FFF7E2FA02940020ADF86D
:1011B0000C00ADF80E00ADF81000ADF814000C20D6
:1011C000ADF8120002A91148FFF71AFE01210F48DD
:1011D000FFF7D7FD40210D48FFF7CAFD002240F27E
:1011E00025510A48FFF7E6FD25208DF8040003206D
:1011F0008DF805008DF8060001208DF8070001A884
:10120000FFF73CFB08B010BD000002400010014099
:1012100010B5FFF79FFD002010BD10B5044600F08B
:1012200031F9FFF7F5FF10BD30B51A4C436824685B
:101230001919884215D04B889BB9174B1B689942E6
:101240000FD0164B1B688B4201D1144B18604B68B2
:101250004360104B1B68C31A0E4D4C682D682C441C
:10126000A3600C4C836824681A19824211D05388F9
:101270007BB90A4B1B68834201D1084B1A60436853
:101280005360044B1B68D31A024D44682D682C44EC
:10129000A36030BD380000203C000020400000204A
:1012A0002DE9F04F86B00D469C46DDE910640196AD
:1012B0000F9B04F04008B8F1000F02D0DFF87081F6
:1012C00001E0DFF87081CDF8008004F01008B8F17B
:1012D000000F01D024F0010404F00108B8F1000F60
:1012E00002D04FF0300801E04FF02008C24600273E
:1012F00004F00208B8F1000F11D0002A02DA2D27FD
:1013000052420CE004F00408B8F1000F01D02B2782
:1013100005E004F00808B8F1000F00D020270021F4
:1013200042B94FF0300B8846491C0DF1080909F805
:1013300008B01DE01AE0E146B9F10A0F08D14FF0FC
:101340000A0BB2FBFBFE0BFB1E28B2FBFBF202E01A
:1013500002F00F08120900BFDDF8009019F808B07C
:101360008846491C0DF1080909F808B0002AE2D1A5
:10137000B14200DD0E469B1B04F01108B8F1000FCE
:1013800010D117B1002B00DD5B1E06E0A84203D28E
:101390004FF0200880F80080401CB3F10008A3F152
:1013A0000103F3DC27B1A84200D207705B1E401C8A
:1013B00004F01008B8F1000F0AD104E0A84201D2ED
:1013C00080F800A0401CB3F10008A3F10103F5DC94
:1013D00006E0A84203D24FF0300880F80080401C9D
:1013E000B046761E8845F4DC08E0A84205D20DF12F
:1013F000080818F8018080F80080401CB1F100084E
:10140000A1F1010104DDDDF80480B8F1000FECD199
:1014100006E0A84203D24FF0200880F80080401C6C
:10142000B3F10008A3F10103F3DC06B0BDE8F08FCF
:1014300015310008043100081CB514200A214FF4AE
:1014400080730022CDE90010044905A001F0BFF827
:101450000446204601F0C8F91CBD00001B1200081C
:101460006D61696E0000000010B5044C02E0206858
:101470008047241D02488442F9D310BD2C31000856
:101480003431000810B5044C02E020688047241D68
:1014900002488442F9D310BD3431000838310008C5
:1014A00010B5FEF78FFE044604480088401C00B2C9
:1014B000024908802046FEF789FE10BDA4000020E6
:1014C00010B5FEF77FFE04460C480088401E00B2AF
:1014D0000A4908800846B0F9000000280ADC00200C
:1014E00008802046FEF772FE0548006828B100F02B
:1014F00029FE02E02046FEF769FE10BDA400002090
:10150000A800002070B5054605B970BD1D480068EB
:10151000854203D31C480068854200D3F5E7A5F156
:101520000C044FF0FF31194800F0DCFE608818B160
:101530002088B0F5F55F08D015A000F071FA238877
:101540006288214619A000F06BFA002060804FF4F9
:10155000F550208021480068844201D21F48046071
:10156000084960680968611A401A1D490968081A23
:101570001B4908602046FFF757FE044800F089FE2B
:1015800000BFC2E7380000203C000020B408002063
:10159000746F2066726565206120626164206461F9
:1015A000746120626C6F636B3A0A00006D656D3A7E
:1015B000203078253038782C207573656420666C6F
:1015C00061673A2025642C206D6167696320636F31
:1015D00064653A203078253034780A0040000020D5
:1015E0004800002000487047D40900200048704798
:1015F000D445002070B5072302224FF4A8710820BB
:10160000FFF724FB1D4800684FF47A72B0FBF2F13B
:10161000481EB0F1807F00D31BE0481E4FF0E0224F
:10162000506150170F22002807DA13071D0E144BC4
:1016300000F00F04241F1D5503E013071C0E114B6F
:101640001C5400BF00204FF0E02290610720106181
:1016500000BF00BF4FF4E130FFF77AFD00BFFFF796
:10166000FEF8FFF701FFFFF7C1FF0446FFF7BAFFDF
:101670000546214600F0E2FE70BD0000000000209B
:1016800018ED00E000E400E010B50446FFF708FFA5
:1016900019E020780A280AD10D210E48FFF71AFC1C
:1016A00000BF80210B48FFF778FB0028F9D014F821
:1016B000011B0848FFF70EFC00BF80210548FFF71B
:1016C0006CFB0028F9D020780028E2D1FFF7F8FE63
:1016D00010BD0000001001402DE9F041054605F164
:1016E00028062C1D3148006840B130462F49096852
:1016F000884707460FB9BDE8F08100BF2CA0216CD8
:1017000000F08EF92EA0616A00F08AF930A0A16A7B
:1017100000F086F932A0E16A00F082F934A0216B72
:1017200000F07EF936A0616800F07AF938A0A1686F
:1017300000F076F93AA0E16800F072F93CA0216966
:1017400000F06EF93EA0616900F06AF940A0A1695D
:1017500000F066F942A0E16900F062F944A0216A54
:1017600000F05EF946A0616B00F05AF948A0A16B49
:1017700000F056F94AA0E16B00F052F9287800F029
:10178000040038B101F008F80746394648A000F0D7
:1017900047F902E04EA000F043F9287800F010006D
:1017A00010B952A000F03CF900BFFEE7D0000020C5
:1017B0007073723A203078253038780A00000000C3
:1017C0007230303A203078253038780A0000000036
:1017D0007230313A203078253038780A0000000025
:1017E0007230323A203078253038780A0000000014
:1017F0007230333A203078253038780A0000000003
:101800007230343A203078253038780A00000000F1
:101810007230353A203078253038780A00000000E0
:101820007230363A203078253038780A00000000CF
:101830007230373A203078253038780A00000000BE
:101840007230383A203078253038780A00000000AD
:101850007230393A203078253038780A000000009C
:101860007231303A203078253038780A0000000094
:101870007231313A203078253038780A0000000083
:101880007231323A203078253038780A0000000072
:10189000206C723A203078253038780A0000000039
:1018A0002070633A203078253038780A0000000034
:1018B00068617264206661756C74206F6E20746854
:1018C000726561643A2025730D0A0D0A000000005C
:1018D00068617264206661756C74206F6E20686147
:1018E0006E646C65720D0A0D0A00000046505520AA
:1018F000616374697665210D0A000000F0B5044645
:101900000D461646301D20F00700443801460022DF
:1019100003E00D4F41F82270521C112AF9D34D6299
:101920004FF0000CC1F828C0C1F82CC0C1F830C07D
:10193000C1F834C08B63CC634FF0807CC1F840C0E9
:1019400000270F60F0BD0000EFBEADDE10B5FEF762
:1019500039FC044604480078401C034908702046BE
:10196000FEF734FC10BD00003400002010B5FEF777
:1019700029FC044604480078401E034908702046AC
:10198000FEF724FC10BD00003400002070B50446B2
:101990002068A0F11405284600F0E0FE002070BD8C
:1019A0002DE9F04105460C469046204600F032FFF6
:1019B000B8F1000F03D0B8F1010F23D105E004F115
:1019C0001401284600F062F81DE02E680FE0A6F131
:1019D000140794F8350097F83510884206DA04F1B8
:1019E000140107F1140000F051F802E03668AE422D
:1019F000EDD100BFAE4204D104F11401284600F03D
:101A000045F800E000BF00BF0020BDE8F08110B540
:101A1000044604F1140000F01BF8002010BD000083
:101A20000FB438B505A80090FF210848009B049A20
:101A300001F0AEF80446FF2C00D9FF240348FFF75D
:101A400023FE0020009038BC5DF814FBB407002092
:101A50004060006070474060006070474060006018
:101A600070470268516002680A6001604860704710
:101A70000268516002680A6001604860704702684D
:101A8000516002680A6001604860704742681160F6
:101A900042684A60416008607047014608688842B1
:101AA00001D1012070470020FCE701460868884208
:101AB00001D1012070470020FCE7D0E900215160EE
:101AC000D0E900121160406000607047D0E9002149
:101AD0005160D0E900121160406000607047D0E9A9
:101AE00000215160D0E90012116040600060704731
:101AF0002DE9F041054615B90020BDE8F081E81C4C
:101B000020F003054E480068854201D90020F4E723
:101B10000C2D00D20C254FF0FF314A4800F0E2FBBB
:101B20004948006849490968461A7EE04748006804
:101B300084196088002874D106F10C006168081AC5
:101B4000A8426ED306F10C006168091A05F118006D
:101B5000814230D306F10C0000EB05083B480068D9
:101B600000EB08074FF4F55038800020788060685B
:101B70007860BE60C4F804800120608030487968D5
:101B800000680C30814205D0304978680968084403
:101B9000C0F808802E48016805F10C0008442C4963
:101BA00008602C4800680968884219D228480068F3
:101BB0002849086014E001206080244960680968B1
:101BC000611A401A224909680844214908602148DD
:101BD00000680968884203D21D4800681D490860F2
:101BE0004FF4F550208018480068844212D107E075
:101BF000154800684068154909680844124908609A
:101C000011480068408828B10F48006812490968E7
:101C10008842EDD10B4800F03CFB04F10C006CE76E
:101C2000FFE70A4800683044466805480068401BE2
:101C3000B0423FF67BAF034800F02BFB00205CE78F
:101C400044000020B408002040000020380000209C
:101C5000480000204C0000203C0000202DE9F0410D
:101C60000F46164604463D463346102B28D305F052
:101C7000030C04F003084CEA080CBCF1000F1FD160
:101C800021462A4610E052F804CB41F804CB52F822
:101C900004CB41F804CB52F804CB41F804CB52F802
:101CA00004CB41F804CB103B102BECD204E052F8EB
:101CB00004CB41F804CB1B1F042BF8D20C4615466D
:101CC00003E015F801CB04F801CBB3F1000CA3F14C
:101CD0000103F6D1BDE8F081F0B50C460546E6B249
:101CE000042A15D300F0030797B9014646EA0623F4
:101CF00043EA034304E008C108C108C108C1103A1F
:101D0000102AF8D201E008C1121F042AFBD20D46A6
:101D100001E005F8016B171EA2F10102F9D1F0BD37
:101D20002DE9F0470746884691469A4639460620EF
:101D300000F06CF9044614B92046BDE8F08784F839
:101D400009A02046FFF763FE08F1030020F003001E
:101D50002084A4F82290218C091D628C01FB02F0E2
:101D6000FFF7C6FEE061E06920B9204600F078F98F
:101D70000020E2E70020A062E0622063002508E086
:101D8000208C001DE16905FB0016206B3060266386
:101D90006D1C608CA842F3DC0020A08404F13400A8
:101DA000FFF756FE2046C8E72DE9FF4704460F46D9
:101DB00090464FF0000900F0EFFC0546FEF702FAEE
:101DC0008246A08C48B9039838B95046FEF7FEF910
:101DD0006FF0010004B0BDE8F0873CE0002028630C
:101DE000039830B95046FEF7F1F96FF0010028630F
:101DF000F0E7627A294604F11400FFF7D1FD039859
:101E000000280CDD00F06AFD814603AA002105F1DF
:101E1000440000F0D3FD05F1440000F02BFE5046D5
:101E2000FEF7D4F900F08EF9286B08B1286BD1E7E2
:101E3000FEF7C8F98246039800280CDD00F04EFD3D
:101E4000A0EB09090398A0EB090003900398002870
:101E500001DA00200390A08C0028BFD0A66A306869
:101E6000A062E06AB04201D10020E062A08C0028AC
:101E700002DDA08C401EA0845046FEF7A7F9208CFE
:101E8000404501D2208C00E040460246311D3846D4
:101E9000FFF7E4FEFEF796F98246206B306026637A
:101EA00004F13400FFF7F9FD50B904F13400FFF7F5
:101EB0006DFD5046FEF78AF900F044F9002089E7ED
:101EC0005046FEF783F9002084E770B504460D46BE
:101ED0001646002332462946204600F001F870BD20
:101EE0002DE9FF47044689469046208C404504D2A0
:101EF0004FF0FF3004B0BDE8F087002700F04CFC45
:101F00000646FEF75FF98246256B35B9039820B97E
:101F10005046FEF75BF9F81EECE739E0002030632D
:101F2000039828B95046FEF751F96FF00200E1E737
:101F3000627A314604F13400FFF732FD039800283D
:101F40000CDD00F0CBFC074603AA002106F144009B
:101F500000F034FD06F1440000F08CFD5046FEF721
:101F600035F900F0EFF8306B08B1306BC2E7FEF7DF
:101F700029F98246039800280ADD00F0AFFCC71B50
:101F80000398C01B03900398002801DA00200390F7
:101F9000206B051EC2D0286820635046FEF716F954
:101FA0000020286042464946281DFFF757FEFEF7ED
:101FB00009F98246E06A08B1E06A0560E562A06A54
:101FC00000B9A562A08C4FF6FF71884203DAA08C9D
:101FD000401CA08405E05046FEF7F8F86FF00200C0
:101FE00088E704F11400FFF758FD50B904F114001C
:101FF000FFF7CCFC5046FEF7E9F800F0A3F800200C
:1020000078E75046FEF7E2F8002073E72DE9F0414B
:1020100006460F46304600F045F80546E868FFF7EB
:1020200067FD044614B90020BDE8F0810021204678
:10203000EA68FFF751FE26720020607208223946D6
:10204000204600F0E1F9FEF7BDF8804604F10C01EE
:10205000281DFFF706FD4046FEF7B8F82046E3E7E7
:1020600070B5044600202072FEF7ACF8054604F176
:102070000C00FFF722FD2846FEF7A8F82046FFF7E0
:1020800041FA70BD70B5044600202072FEF79AF840
:10209000054604F10C00FFF710FD2846FEF796F800
:1020A00070BD0000024600210AE0074800EB011065
:1020B0000078904203D1044800EB01107047491C9E
:1020C0000529F2DB0020F9E7500000202DE9F04758
:1020D00004460D46904600262846FFF7E3FF0746D4
:1020E000FFF7DEF97E6802E0A6F10C003668381DC5
:1020F0008642F9D1FFF7E4F945F08000207208220A
:102100004146204600F080F9FEF75CF8814604F174
:102110000C01381DFFF7A5FC4846FEF757F8BDE84F
:10212000F0870146087A00F0800008B1012070476E
:102130000020FCE710B5FFF709FC00F0D5FBFFF726
:1021400015FC10BD2DE9F041FEF73CF80746184894
:10215000008838BB17480068FEF7C2FE461E1648C6
:1021600050F83600A0F1140414480068844218D0D6
:1021700013490E701148056804601248007850B980
:1021800004F11C0105F11C00FEF723F83846FEF7A8
:102190001DF8BDE8F08104F11C0105F11C00FEF7FB
:1021A00018F800BF3846FEF711F800BFF1E700004D
:1021B000A4000020A0000020D4080020A8000020D7
:1021C000AC0000203400002070B50446FDF7FAFF93
:1021D000054614F8340F20F00F0040F00100207085
:1021E0006278343C0A4B03EBC20004F114014268EC
:1021F000116042684A604160086000BF0549A06BF9
:1022000009680843034908602846FDF7DFFF70BDF1
:10221000D4080020A000002070B50446FDF7D2FFCE
:10222000054604F11400D0E900215160D0E9001204
:1022300011604060006000BF94F83510094A02EB5D
:10224000C1000168814201D1012100E0002129B1D2
:102250000548A16B00688843034908602846FDF7DC
:10226000B5FF70BDD4080020A00000202DE9F0418A
:1022700004460D4616461F462A4602212046FFF711
:1022800025FF2046FFF7C3FBA68367720020BDE849
:10229000F08170B504460025FDF794FF064604F171
:1022A0001400FFF7FAFB28B904F11400FFF76EFBE6
:1022B00001250EE0A08B4FF6FF71884203DAA08B58
:1022C000401CA08305E03046FDF780FF6FF0020060
:1022D00070BD3046FDF77AFF012D01D1FFF732FFC7
:1022E0000020F5E773B50546FDF76CFF0646A88BA1
:1022F000002806DDA88B401EA8833046FDF766FF48
:1023000028E0019828B93046FDF760FF6FF0010022
:102310007CBD00F041FA0446002020636A7A214621
:1023200005F11400FFF73CFB0198002809DD01AA24
:10233000002104F1440000F041FB04F1440000F0EE
:1023400099FB3046FDF742FFFFF7FCFE206B08B11A
:10235000206BDDE70020DBE708B509A0FFF760FB95
:102360000AA0FFF75DFB12A00523012203210090C4
:1023700012A0FFF755FB19A0FFF752FB08BD0000A4
:102380000A205C207C202F0A000000002D205254DF
:10239000202D2020202020546872656164204F7019
:1023A00065726174696E672053797374656D0A0094
:1023B0004F6374203233203230323500202F207C9E
:1023C000205C202020202025642E25642E256420DA
:1023D0006275696C642025730A0000002032303079
:1023E00036202D203230323020436F707972696789
:1023F00068742062792072742D746872656164203B
:102400007465616D0A00000070B50346A2B11846FC
:102410000C4600BF14F8016B00F8016B3EB902E0F6
:10242000002500F8015B551E2A1EF9D102E0551E59
:102430002A1EEFD100BF00BF184670BD2DE9F04144
:1024400005460E46E81C20F0030726F00308B8F105
:10245000180F09D9A8F11800B84205D3A8EB070056
:1024600018381E49086006E0324629461CA0FFF7CE
:10247000D7FABDE8F0812948076004684FF4F550A9
:102480002080164800680C3060600020A0606080EA
:102490002249606809680844214908604FF4F550F2
:1024A0000968088001201E49096848800B480068B7
:1024B0000C301B4909684860084800680C3018490E
:1024C000096888600023012216A11848FFF7CEFE94
:1024D000124800681649086000BFCAE7440000209F
:1024E0006D656D20696E69742C206572726F722043
:1024F000626567696E206164647265737320307809
:1025000025782C20616E6420656E6420616464729D
:1025100065737320307825780A00000038000020A9
:102520003C0000206865617000000000B4080020D5
:102530004000002010B500200B490880002405E071
:102540000A4901EBC400FFF786FA641C202CF7DB74
:102550001F200749087000200649086006490860E6
:102560000648FFF778FA10BDA4000020D408002028
:10257000AC000020A8000020A0000020B000002037
:1025800070B508480068FEF7ABFC451E064850F8D9
:102590003500A0F114040548046004F11C00FDF7A7
:1025A0005EFE70BDA0000020D4080020A80000201E
:1025B00010B5002405E0044901EBC400FFF74EFA12
:1025C000641C002CF7D010BDB800002070472DE926
:1025D000FF5F06460F4690461D46DDE90EAB3146CD
:1025E0000120FFF713FD8146B9F1000F03D1002050
:1025F00004B0BDE8F09F2846FFF77AFA044624B9F4
:102600004846FFF72DFD0020F2E743463A463146A3
:1026100048468DE8300CFEF799FC4846E8E710B5CF
:102620000446204600F0BEF810BD000070B5134807
:102630000468FDF7C7FD05462046FEF7F8FC204676
:10264000FFF7EAFD042084F8340004F1440000F0B0
:10265000E6F92046FFF765FD012803D12046FFF784
:1026600011FD04E004F114010548FFF701FAFFF73A
:1026700069FD2846FDF7AAFD70BD0000A8000020F6
:10268000B000002001E000F001F8FCE770B528E0A0
:10269000FDF798FD054600BF13480168814201D04F
:1026A000012100E0002119B92846FDF78FFD19E04E
:1026B0000D480068A0F1140404F11400D0E90021D1
:1026C0005160D0E9001211604060006000BFA06A54
:1026D000FEF718FF2046FFF7C3FC2846FDF776FDFE
:1026E00000BFD5E700BF70BDB00000201FB520209F
:1026F0001F21C200074BCDE90032CDE902100023B3
:10270000054A06A1074800F00FF8064800F06CF8EB
:102710001FBD0000B4060020852600087469646CA3
:10272000650000003C0600202DE9FF5F05460C46D1
:1027300016461F46DDE910ABDDE90E892246012170
:102740002846FFF7C3FC3B463246214628468DE823
:10275000000FFEF7FBFB04B0BDE8F09F70B5044628
:1027600094F8340000F00F00022802D04FF0FF3040
:1027700070BDFDF727FD054604F11400FFF7A6F92B
:1027800004F1440000F0ECF92846FDF71FFD204657
:10279000FFF71AFD0020EBE70148006870470000D2
:1027A000A800002031B5FDF70DFD05460D48046871
:1027B000204600F02FF86A46002104F1440000F0A2
:1027C000FDF804F1440000F055F92846FDF7FEFC41
:1027D000FFF7B8FC206B801C08B9002020630020A4
:1027E00038BD0000A800002010B504463434A0789D
:1027F00060706178012088406060022004F834092C
:102800002046FFF7ABFFFFF7C7FF08B1FFF79AFCC1
:10281000002010BD70B5044694F8340000F00F009D
:10282000012802D04FF0FF3070BDFDF7CBFC05460C
:102830002046FFF7F1FC94F8340020F00F0040F040
:10284000020084F8340004F1440000F089F92846BD
:10285000FDF7BCFC0020E7E770B5044625466FF0A5
:102860000100286305F11400FFF730F92846FFF74F
:10287000ABFCFFF767FC70BD70B5FDF7A3FC054628
:102880001448046894F8340000F00F0001281CD1AB
:10289000D4E90510814218D004F11400FFF716F9AD
:1028A00094F835200C4B03EBC20004F1140142688C
:1028B000116042684A604160086000BF2846FDF729
:1028C00085FCFFF73FFC002070BD2846FDF77EFC2D
:1028D0000020F9E7A8000020D40800200148006883
:1028E000704700003000002010B50A480068401C06
:1028F00008490860FFF750FF0446206C401E206422
:10290000206C18B9E06B2064FFF7B6FF00F004F804
:1029100010BD0000300000207CB56846FFF79EF82F
:10292000FFF7DCFF0546FDF74DFC06463AE022487E
:102930000068A0F11404A06A281A6FF000418842D0
:102940002ED22046FEF765FB607A00F0020018B92F
:10295000607A20F00100607204F114016846FFF70C
:102960008EF8D4E907108847FFF7B8FF0546684698
:10297000FFF79BF800B115E004F11400FFF7AFF882
:10298000607A00F0020060B1607A00F0010040B1AE
:10299000607A20F001006072204600F06BF800E0E1
:1029A00005E000BF0448FFF780F80028BFD000BF53
:1029B0003046FDF70BFC7CBDB80000202DE9F0414E
:1029C00004460E461546FDF7FDFB0746052E1ED2B2
:1029D000DFE806F00603090E1300606A286017E0BE
:1029E0002868606214E0607A20F0020060720FE0F4
:1029F000607A40F0020060720AE0607A00F0010044
:102A000010B10120286001E00020286000E000BF34
:102A100000BF3846FDF7DAFB0020BDE8F08170B555
:102A20000446FDF7CFFB05462046FEF7F2FA607A32
:102A300020F0010060722846FDF7C8FB2046FFF732
:102A400021FB002070BD2DE9F84307460C461546D2
:102A50001E46DDE9088922460A213846FFF736FB83
:102A60004346324629463846CDF80090FEF7B0FA84
:102A7000BDE8F8832DE9F8430546FDF7A3FB804642
:102A80002846FEF7C6FA687A20F001006872FFF760
:102A900025FF696A0844A8622F4F009700242AE0A6
:102AA00019E05DF824201168142202EBC402881A90
:102AB000826AAB6AD21A00D108E0826AAB6AD21A83
:102AC0006FF000439A4200D20CE000BF5DF8240092
:102AD00000684DF824005DF8240007EBC401496844
:102AE0008842DED100BF2CB15DF824000830611CA3
:102AF0004DF82100641C002CD2D018480068401CFE
:102B0000164908600846066805F114010098FEF7AA
:102B1000B6FF022412E006F0030060B9C4F101031D
:102B200005F1140202EBC301C4F101025DF82200B9
:102B3000FEF7A5FF00E003E0B608641C012CEAD90B
:102B400000BF687A40F0010068724046FDF73EFB26
:102B50000020BDE8F8830000B8000020C00000207D
:102B600070B50446607A00F0010010B94FF0FF30F4
:102B700070BDFDF727FB05462046FEF74AFA607A4E
:102B800020F0010060722846FDF720FB0020EFE7EF
:102B90002DE9FF4F89B081464C460A9809EB0006A3
:102BA0004E4504D24FF0FF36A6EB09000A9077E1BC
:102BB0000B980078252806D0B44202D20B980078F2
:102BC0002070641C69E1002526E00B98401C0B90E6
:102BD0000B9800782D2802D145F010051CE00B98C9
:102BE00000782B2802D145F0040515E00B980078F9
:102BF000202802D145F008050EE00B980078232824
:102C000002D145F0200507E00B980078302802D16A
:102C100045F0010500E000E0D7E700BF4FF0FF37C7
:102C20000B98007830380A2804D20BA800F06DF910
:102C300007460EE00B9800782A280AD10B98401C12
:102C40000B900C9880C80C90002F02DA7F4245F060
:102C500010054FF0FF3A0B9800782E281CD10B98E6
:102C6000401C0B900B98007830380A2804D20BA82F
:102C700000F04BF982460AE00B9800782A2806D12A
:102C80000B98401C0B900C9850F804AB0C90BAF1C8
:102C9000000F01DA4FF0000A002004900B98007832
:102CA000682803D00B9800786C2805D10B98007821
:102CB00004900B98401C0B900A2005900B9800780C
:102CC0006F2873D00CDC632813D004DC25286ED069
:102CD00058286DD195E064286BD06928F9D197E028
:102CE000702873D0732825D075286ED07828F0D13D
:102CF0008AE005F0100040B904E0B44201D220207F
:102D00002070641C781E071EF7DC0C9810F8041B5A
:102D10000C90C8B20790B44201D207982070641C8E
:102D200004E0B44201D220202070641C781E071EEB
:102D3000F7DCB2E00C98006806900C98001D0C902F
:102D4000069808B960A006904FF0000801E008F16D
:102D50000108B84504D0069810F808000028F6D1FC
:102D6000BAF1000F02DDD04500DDD04605F01000BD
:102D700048B904E0B44201D220202070641C3846D7
:102D80007F1E4045F6DC002008900BE0B44202D2E2
:102D9000069800782070641C0698401C06900898DD
:102DA000401C089008984045F0DB09E026E01FE051
:102DB00032E02CE00AE0B44201D220202070641CF2
:102DC00038467F1E4045F6DC67E024E0781C10B9E9
:102DD000082745F00105CDE9007A02950C9804C852
:102DE000102331460C902046FEF75AFA044654E070
:102DF000B44201D225202070641C4EE008200590CA
:102E00001DE045F0400500BF1020059017E000BF11
:102E100045F0020500BF12E0B44201D22520207027
:102E2000641C0B98007830B1B44202D20B98007841
:102E30002070641C02E00B98401E0B902DE000BF38
:102E400004986C2807D10C9850F804BB0C9005F03E
:102E50000200B8B116E0049868280BD10C9830F83D
:102E6000041B1FFA81FB0C9005F0020050B10FFA11
:102E70008BFB07E00C9850F804BB0C9005F00200A7
:102E800000B100BFCDE9007A02955A46314620468E
:102E9000059BFEF705FA044600BF0B98401C0B90FB
:102EA0000B98007800287FF483AE0A9838B1B442BA
:102EB00002D20020207002E0002006F8010CA4EBF2
:102EC00009000DB0BDE8F08F284E554C4C2900008C
:102ED0000020704700207047002070470020704796
:102EE00010B5FDF76FF9FEF785FBFFF735FAFFF731
:102EF0005FFBFFF71FFBFEF79FFAFFF767FBFFF78C
:102F0000F5FBFFF73DFB002010BD0146002009E066
:102F10000B685A1C0A601A7800EB800302EB43022C
:102F2000A2F130000A681278303A0A2AF0D37047CA
:102F30007FB505460E464FF4007011490023114A33
:102F400001AC61C4009110A11148FFF7EDFB0446EC
:102F50001CB910A0FEF764FD02E015A0FEF760FDAD
:102F60000B48FFF741FC04461CB917A0FEF758FDBB
:102F700002E01CA0FEF754FD204604B070BD000026
:102F8000C4030020290300086C65643100000000C0
:102F9000C40500205461736B204170704C6564203F
:102FA000496E697420537563636573730D0A00007D
:102FB0005461736B204170704C656420496E697474
:102FC000204661696C0D0A005461736B204170707A
:102FD0004C65642053746172742053756363657328
:102FE000730D0A005461736B204170704C6564204E
:102FF0005374617274204661696C0D0A0000000010
:1030000000207047000001000200010003000100E1
:1030100002000100040001000200010003000100A1
:103020000200010005000100020001000300010090
:103030000200010004000100020001000300010081
:10304000020001000600010002000100030001006F
:103050000200010004000100020001000300010061
:103060000200010005000100020001000300010050
:103070000200010004000100020001000300010041
:10308000020001000700010002000100030001002E
:103090000200010004000100020001000300010021
:1030A0000200010005000100020001000300010010
:1030B0000200010004000100020001000300010001
:1030C00002000100060001000200010003000100EF
:1030D00002000100040001000200010003000100E1
:1030E00002000100050001000200010003000100D0
:1030F00002000100040001000200010003000100C1
:1031000002000100303132333435363738396162EC
:1031100063646566003031323334353637383941CF
:103120004243444546000000DD2E0008D52E00082D
:1031300001300008D12E0008D92E00085C310008AB
:1031400000000020D40000002C0F000830320008DE
:10315000D4000020044900003C0F0008007A030A54
:103160000000000000000000010203040607080937
:10317000000000000102030401020304060708091D
:10318000000000000000000000000000000000003F
:10319000000000000000000000000000000000002F
:1031A000000000000000000000000000010000001E
:1031B00054000020540000207800000002000000AD
:1031C00064000020640000202000000005000000D2
:1031D0007400002074000020300000000600000091
:1031E00084000020840000203C0000000A00000051
:1031F00094000020940000202C000000000000003B
:1032000000000000000000000000000000000000BE
:1032100000000000000000000000000000000000AE
:10322000000000000000000000000000000000009E
:040000050800018965
:00000001FF
